{
  "_format": "hh-sol-artifact-1",
  "contractName": "MockNFT",
  "sourceName": "contracts/test/MockNFT.sol",
  "abi": [
    {
      "inputs": [
        {
          "internalType": "string",
          "name": "_name",
          "type": "string"
        },
        {
          "internalType": "string",
          "name": "_symbol",
          "type": "string"
        },
        {
          "internalType": "string",
          "name": "_baseUri",
          "type": "string"
        }
      ],
      "stateMutability": "nonpayable",
      "type": "constructor"
    },
    {
      "inputs": [
        {
          "internalType": "address",
          "name": "sender",
          "type": "address"
        },
        {
          "internalType": "uint256",
          "name": "tokenId",
          "type": "uint256"
        },
        {
          "internalType": "address",
          "name": "owner",
          "type": "address"
        }
      ],
      "name": "ERC721IncorrectOwner",
      "type": "error"
    },
    {
      "inputs": [
        {
          "internalType": "address",
          "name": "operator",
          "type": "address"
        },
        {
          "internalType": "uint256",
          "name": "tokenId",
          "type": "uint256"
        }
      ],
      "name": "ERC721InsufficientApproval",
      "type": "error"
    },
    {
      "inputs": [
        {
          "internalType": "address",
          "name": "approver",
          "type": "address"
        }
      ],
      "name": "ERC721InvalidApprover",
      "type": "error"
    },
    {
      "inputs": [
        {
          "internalType": "address",
          "name": "operator",
          "type": "address"
        }
      ],
      "name": "ERC721InvalidOperator",
      "type": "error"
    },
    {
      "inputs": [
        {
          "internalType": "address",
          "name": "owner",
          "type": "address"
        }
      ],
      "name": "ERC721InvalidOwner",
      "type": "error"
    },
    {
      "inputs": [
        {
          "internalType": "address",
          "name": "receiver",
          "type": "address"
        }
      ],
      "name": "ERC721InvalidReceiver",
      "type": "error"
    },
    {
      "inputs": [
        {
          "internalType": "address",
          "name": "sender",
          "type": "address"
        }
      ],
      "name": "ERC721InvalidSender",
      "type": "error"
    },
    {
      "inputs": [
        {
          "internalType": "uint256",
          "name": "tokenId",
          "type": "uint256"
        }
      ],
      "name": "ERC721NonexistentToken",
      "type": "error"
    },
    {
      "anonymous": false,
      "inputs": [
        {
          "indexed": true,
          "internalType": "address",
          "name": "owner",
          "type": "address"
        },
        {
          "indexed": true,
          "internalType": "address",
          "name": "approved",
          "type": "address"
        },
        {
          "indexed": true,
          "internalType": "uint256",
          "name": "tokenId",
          "type": "uint256"
        }
      ],
      "name": "Approval",
      "type": "event"
    },
    {
      "anonymous": false,
      "inputs": [
        {
          "indexed": true,
          "internalType": "address",
          "name": "owner",
          "type": "address"
        },
        {
          "indexed": true,
          "internalType": "address",
          "name": "operator",
          "type": "address"
        },
        {
          "indexed": false,
          "internalType": "bool",
          "name": "approved",
          "type": "bool"
        }
      ],
      "name": "ApprovalForAll",
      "type": "event"
    },
    {
      "anonymous": false,
      "inputs": [
        {
          "indexed": true,
          "internalType": "address",
          "name": "from",
          "type": "address"
        },
        {
          "indexed": true,
          "internalType": "address",
          "name": "to",
          "type": "address"
        },
        {
          "indexed": true,
          "internalType": "uint256",
          "name": "tokenId",
          "type": "uint256"
        }
      ],
      "name": "Transfer",
      "type": "event"
    },
    {
      "inputs": [
        {
          "internalType": "address",
          "name": "to",
          "type": "address"
        },
        {
          "internalType": "uint256",
          "name": "tokenId",
          "type": "uint256"
        }
      ],
      "name": "approve",
      "outputs": [],
      "stateMutability": "nonpayable",
      "type": "function"
    },
    {
      "inputs": [
        {
          "internalType": "address",
          "name": "owner",
          "type": "address"
        }
      ],
      "name": "balanceOf",
      "outputs": [
        {
          "internalType": "uint256",
          "name": "",
          "type": "uint256"
        }
      ],
      "stateMutability": "view",
      "type": "function"
    },
    {
      "inputs": [],
      "name": "baseURI",
      "outputs": [
        {
          "internalType": "string",
          "name": "",
          "type": "string"
        }
      ],
      "stateMutability": "view",
      "type": "function"
    },
    {
      "inputs": [
        {
          "internalType": "uint256",
          "name": "tokenId",
          "type": "uint256"
        }
      ],
      "name": "getApproved",
      "outputs": [
        {
          "internalType": "address",
          "name": "",
          "type": "address"
        }
      ],
      "stateMutability": "view",
      "type": "function"
    },
    {
      "inputs": [
        {
          "internalType": "address",
          "name": "owner",
          "type": "address"
        },
        {
          "internalType": "address",
          "name": "operator",
          "type": "address"
        }
      ],
      "name": "isApprovedForAll",
      "outputs": [
        {
          "internalType": "bool",
          "name": "",
          "type": "bool"
        }
      ],
      "stateMutability": "view",
      "type": "function"
    },
    {
      "inputs": [
        {
          "internalType": "address",
          "name": "_to",
          "type": "address"
        },
        {
          "internalType": "uint256",
          "name": "tokenId",
          "type": "uint256"
        }
      ],
      "name": "mint",
      "outputs": [],
      "stateMutability": "nonpayable",
      "type": "function"
    },
    {
      "inputs": [],
      "name": "name",
      "outputs": [
        {
          "internalType": "string",
          "name": "",
          "type": "string"
        }
      ],
      "stateMutability": "view",
      "type": "function"
    },
    {
      "inputs": [
        {
          "internalType": "uint256",
          "name": "tokenId",
          "type": "uint256"
        }
      ],
      "name": "ownerOf",
      "outputs": [
        {
          "internalType": "address",
          "name": "",
          "type": "address"
        }
      ],
      "stateMutability": "view",
      "type": "function"
    },
    {
      "inputs": [
        {
          "internalType": "address",
          "name": "from",
          "type": "address"
        },
        {
          "internalType": "address",
          "name": "to",
          "type": "address"
        },
        {
          "internalType": "uint256",
          "name": "tokenId",
          "type": "uint256"
        }
      ],
      "name": "safeTransferFrom",
      "outputs": [],
      "stateMutability": "nonpayable",
      "type": "function"
    },
    {
      "inputs": [
        {
          "internalType": "address",
          "name": "from",
          "type": "address"
        },
        {
          "internalType": "address",
          "name": "to",
          "type": "address"
        },
        {
          "internalType": "uint256",
          "name": "tokenId",
          "type": "uint256"
        },
        {
          "internalType": "bytes",
          "name": "data",
          "type": "bytes"
        }
      ],
      "name": "safeTransferFrom",
      "outputs": [],
      "stateMutability": "nonpayable",
      "type": "function"
    },
    {
      "inputs": [
        {
          "internalType": "address",
          "name": "operator",
          "type": "address"
        },
        {
          "internalType": "bool",
          "name": "approved",
          "type": "bool"
        }
      ],
      "name": "setApprovalForAll",
      "outputs": [],
      "stateMutability": "nonpayable",
      "type": "function"
    },
    {
      "inputs": [
        {
          "internalType": "bytes4",
          "name": "interfaceId",
          "type": "bytes4"
        }
      ],
      "name": "supportsInterface",
      "outputs": [
        {
          "internalType": "bool",
          "name": "",
          "type": "bool"
        }
      ],
      "stateMutability": "view",
      "type": "function"
    },
    {
      "inputs": [],
      "name": "symbol",
      "outputs": [
        {
          "internalType": "string",
          "name": "",
          "type": "string"
        }
      ],
      "stateMutability": "view",
      "type": "function"
    },
    {
      "inputs": [
        {
          "internalType": "uint256",
          "name": "tokenId",
          "type": "uint256"
        }
      ],
      "name": "tokenURI",
      "outputs": [
        {
          "internalType": "string",
          "name": "",
          "type": "string"
        }
      ],
      "stateMutability": "view",
      "type": "function"
    },
    {
      "inputs": [
        {
          "internalType": "address",
          "name": "from",
          "type": "address"
        },
        {
          "internalType": "address",
          "name": "to",
          "type": "address"
        },
        {
          "internalType": "uint256",
          "name": "tokenId",
          "type": "uint256"
        }
      ],
      "name": "transferFrom",
      "outputs": [],
      "stateMutability": "nonpayable",
      "type": "function"
    }
  ],
  "bytecode": "0x60806040523480156200001157600080fd5b50604051620013fb380380620013fb833981016040819052620000349162000138565b828260006200004483826200025a565b5060016200005382826200025a565b506006915062000066905082826200025a565b5050505062000326565b634e487b7160e01b600052604160045260246000fd5b600082601f8301126200009857600080fd5b81516001600160401b0380821115620000b557620000b562000070565b604051601f8301601f19908116603f01168101908282118183101715620000e057620000e062000070565b8160405283815260209250866020858801011115620000fe57600080fd5b600091505b8382101562000122578582018301518183018401529082019062000103565b6000602085830101528094505050505092915050565b6000806000606084860312156200014e57600080fd5b83516001600160401b03808211156200016657600080fd5b620001748783880162000086565b945060208601519150808211156200018b57600080fd5b620001998783880162000086565b93506040860151915080821115620001b057600080fd5b50620001bf8682870162000086565b9150509250925092565b600181811c90821680620001de57607f821691505b602082108103620001ff57634e487b7160e01b600052602260045260246000fd5b50919050565b601f82111562000255576000816000526020600020601f850160051c81016020861015620002305750805b601f850160051c820191505b8181101562000251578281556001016200023c565b5050505b505050565b81516001600160401b0381111562000276576200027662000070565b6200028e81620002878454620001c9565b8462000205565b602080601f831160018114620002c65760008415620002ad5750858301515b600019600386901b1c1916600185901b17855562000251565b600085815260208120601f198616915b82811015620002f757888601518255948401946001909101908401620002d6565b5085821015620003165787850151600019600388901b60f8161c191681555b5050505050600190811b01905550565b6110c580620003366000396000f3fe608060405234801561001057600080fd5b50600436106100f55760003560e01c80636352211e11610097578063a22cb46511610066578063a22cb465146101f4578063b88d4fde14610207578063c87b56dd1461021a578063e985e9c51461022d57600080fd5b80636352211e146101b05780636c0360eb146101c357806370a08231146101cb57806395d89b41146101ec57600080fd5b8063095ea7b3116100d3578063095ea7b31461016257806323b872dd1461017757806340c10f191461018a57806342842e0e1461019d57600080fd5b806301ffc9a7146100fa57806306fdde0314610122578063081812fc14610137575b600080fd5b61010d610108366004610c87565b610240565b60405190151581526020015b60405180910390f35b61012a610292565b6040516101199190610cfb565b61014a610145366004610d0e565b610324565b6040516001600160a01b039091168152602001610119565b610175610170366004610d43565b61034d565b005b610175610185366004610d6d565b61035c565b610175610198366004610d43565b6103ec565b6101756101ab366004610d6d565b6103f6565b61014a6101be366004610d0e565b610416565b61012a610421565b6101de6101d9366004610da9565b6104af565b604051908152602001610119565b61012a6104f7565b610175610202366004610dc4565b610506565b610175610215366004610e16565b610511565b61012a610228366004610d0e565b610528565b61010d61023b366004610ef2565b61058a565b60006001600160e01b031982166380ac58cd60e01b148061027157506001600160e01b03198216635b5e139f60e01b145b8061028c57506301ffc9a760e01b6001600160e01b03198316145b92915050565b6060600080546102a190610f25565b80601f01602080910402602001604051908101604052809291908181526020018280546102cd90610f25565b801561031a5780601f106102ef5761010080835404028352916020019161031a565b820191906000526020600020905b8154815290600101906020018083116102fd57829003601f168201915b5050505050905090565b600061032f826105b8565b506000828152600460205260409020546001600160a01b031661028c565b6103588282336105f1565b5050565b6001600160a01b03821661038b57604051633250574960e11b8152600060048201526024015b60405180910390fd5b60006103988383336105fe565b9050836001600160a01b0316816001600160a01b0316146103e6576040516364283d7b60e01b81526001600160a01b0380861660048301526024820184905282166044820152606401610382565b50505050565b61035882826106f7565b61041183838360405180602001604052806000815250610511565b505050565b600061028c826105b8565b6006805461042e90610f25565b80601f016020809104026020016040519081016040528092919081815260200182805461045a90610f25565b80156104a75780601f1061047c576101008083540402835291602001916104a7565b820191906000526020600020905b81548152906001019060200180831161048a57829003601f168201915b505050505081565b60006001600160a01b0382166104db576040516322718ad960e21b815260006004820152602401610382565b506001600160a01b031660009081526003602052604090205490565b6060600180546102a190610f25565b61035833838361075c565b61051c84848461035c565b6103e6848484846107fb565b6060610533826105b8565b50600061053e610924565b5111610559576040518060200160405280600081525061028c565b600661056483610933565b604051602001610575929190610f7b565b60405160208183030381529060405292915050565b6001600160a01b03918216600090815260056020908152604080832093909416825291909152205460ff1690565b6000818152600260205260408120546001600160a01b03168061028c57604051637e27328960e01b815260048101849052602401610382565b61041183838360016109c6565b6000828152600260205260408120546001600160a01b039081169083161561062b5761062b818486610acc565b6001600160a01b03811615610669576106486000856000806109c6565b6001600160a01b038116600090815260036020526040902080546000190190555b6001600160a01b03851615610698576001600160a01b0385166000908152600360205260409020805460010190555b60008481526002602052604080822080546001600160a01b0319166001600160a01b0389811691821790925591518793918516917fddf252ad1be2c89b69c2b068fc378daa952ba7f163c4a11628f55a4df523b3ef91a4949350505050565b6001600160a01b03821661072157604051633250574960e11b815260006004820152602401610382565b600061072f838360006105fe565b90506001600160a01b03811615610411576040516339e3563760e11b815260006004820152602401610382565b6001600160a01b03821661078e57604051630b61174360e31b81526001600160a01b0383166004820152602401610382565b6001600160a01b03838116600081815260056020908152604080832094871680845294825291829020805460ff191686151590811790915591519182527f17307eab39ab6107e8899845ad3d59bd9653f200f220920489ca2b5937696c31910160405180910390a3505050565b6001600160a01b0383163b156103e657604051630a85bd0160e11b81526001600160a01b0384169063150b7a029061083d903390889087908790600401611035565b6020604051808303816000875af1925050508015610878575060408051601f3d908101601f1916820190925261087591810190611072565b60015b6108e1573d8080156108a6576040519150601f19603f3d011682016040523d82523d6000602084013e6108ab565b606091505b5080516000036108d957604051633250574960e11b81526001600160a01b0385166004820152602401610382565b805181602001fd5b6001600160e01b03198116630a85bd0160e11b1461091d57604051633250574960e11b81526001600160a01b0385166004820152602401610382565b5050505050565b6060600680546102a190610f25565b6060600061094083610b30565b600101905060008167ffffffffffffffff81111561096057610960610e00565b6040519080825280601f01601f19166020018201604052801561098a576020820181803683370190505b5090508181016020015b600019016f181899199a1a9b1b9c1cb0b131b232b360811b600a86061a8153600a850494508461099457509392505050565b80806109da57506001600160a01b03821615155b15610a9c5760006109ea846105b8565b90506001600160a01b03831615801590610a165750826001600160a01b0316816001600160a01b031614155b8015610a295750610a27818461058a565b155b15610a525760405163a9fbf51f60e01b81526001600160a01b0384166004820152602401610382565b8115610a9a5783856001600160a01b0316826001600160a01b03167f8c5be1e5ebec7d5bd14f71427d1e84f3dd0314c0f7b2291e5b200ac8c7c3b92560405160405180910390a45b505b5050600090815260046020526040902080546001600160a01b0319166001600160a01b0392909216919091179055565b610ad7838383610c08565b610411576001600160a01b038316610b0557604051637e27328960e01b815260048101829052602401610382565b60405163177e802f60e01b81526001600160a01b038316600482015260248101829052604401610382565b60008072184f03e93ff9f4daa797ed6e38ed64bf6a1f0160401b8310610b6f5772184f03e93ff9f4daa797ed6e38ed64bf6a1f0160401b830492506040015b6d04ee2d6d415b85acef81000000008310610b9b576d04ee2d6d415b85acef8100000000830492506020015b662386f26fc100008310610bb957662386f26fc10000830492506010015b6305f5e1008310610bd1576305f5e100830492506008015b6127108310610be557612710830492506004015b60648310610bf7576064830492506002015b600a831061028c5760010192915050565b60006001600160a01b03831615801590610c665750826001600160a01b0316846001600160a01b03161480610c425750610c42848461058a565b80610c6657506000828152600460205260409020546001600160a01b038481169116145b949350505050565b6001600160e01b031981168114610c8457600080fd5b50565b600060208284031215610c9957600080fd5b8135610ca481610c6e565b9392505050565b60005b83811015610cc6578181015183820152602001610cae565b50506000910152565b60008151808452610ce7816020860160208601610cab565b601f01601f19169290920160200192915050565b602081526000610ca46020830184610ccf565b600060208284031215610d2057600080fd5b5035919050565b80356001600160a01b0381168114610d3e57600080fd5b919050565b60008060408385031215610d5657600080fd5b610d5f83610d27565b946020939093013593505050565b600080600060608486031215610d8257600080fd5b610d8b84610d27565b9250610d9960208501610d27565b9150604084013590509250925092565b600060208284031215610dbb57600080fd5b610ca482610d27565b60008060408385031215610dd757600080fd5b610de083610d27565b915060208301358015158114610df557600080fd5b809150509250929050565b634e487b7160e01b600052604160045260246000fd5b60008060008060808587031215610e2c57600080fd5b610e3585610d27565b9350610e4360208601610d27565b925060408501359150606085013567ffffffffffffffff80821115610e6757600080fd5b818701915087601f830112610e7b57600080fd5b813581811115610e8d57610e8d610e00565b604051601f8201601f19908116603f01168101908382118183101715610eb557610eb5610e00565b816040528281528a6020848701011115610ece57600080fd5b82602086016020830137600060208483010152809550505050505092959194509250565b60008060408385031215610f0557600080fd5b610f0e83610d27565b9150610f1c60208401610d27565b90509250929050565b600181811c90821680610f3957607f821691505b602082108103610f5957634e487b7160e01b600052602260045260246000fd5b50919050565b60008151610f71818560208601610cab565b9290920192915050565b60008084548160018260011c91506001831680610f9957607f831692505b60208084108203610fb857634e487b7160e01b86526022600452602486fd5b818015610fcc5760018114610fe15761100e565b60ff198616895284151585028901965061100e565b60008b81526020902060005b868110156110065781548b820152908501908301610fed565b505084890196505b50505050505061101e8185610f5f565b64173539b7b760d91b815260050195945050505050565b6001600160a01b038581168252841660208201526040810183905260806060820181905260009061106890830184610ccf565b9695505050505050565b60006020828403121561108457600080fd5b8151610ca481610c6e56fea26469706673582212203fa6c7afc2f8b50f113a3a84ef872e12901c197a9db7583fa4d938c79cbf8c4f64736f6c63430008180033",
  "linkReferences": {},
  "deployedLinkReferences": {}
}