{
  "_format": "hh-sol-artifact-1",
  "contractName": "NFTLending",
  "sourceName": "contracts/NFTLending.sol",
  "abi": [
    {
      "inputs": [
        {
          "internalType": "uint256",
          "name": "_interestRate",
          "type": "uint256"
        },
        {
          "internalType": "uint256",
          "name": "_loanDuration",
          "type": "uint256"
        }
      ],
      "stateMutability": "nonpayable",
      "type": "constructor"
    },
    {
      "inputs": [],
      "name": "AlreadyCollateralized",
      "type": "error"
    },
    {
      "inputs": [],
      "name": "EnforcedPause",
      "type": "error"
    },
    {
      "inputs": [],
      "name": "ExpectedPause",
      "type": "error"
    },
    {
      "inputs": [],
      "name": "InsufficientAmount",
      "type": "error"
    },
    {
      "inputs": [],
      "name": "InsufficientContractBalance",
      "type": "error"
    },
    {
      "inputs": [],
      "name": "LoanAmountTooHigh",
      "type": "error"
    },
    {
      "inputs": [],
      "name": "LoanDeactive",
      "type": "error"
    },
    {
      "inputs": [],
      "name": "LoanExpired",
      "type": "error"
    },
    {
      "inputs": [],
      "name": "LoanNotExpired",
      "type": "error"
    },
    {
      "inputs": [],
      "name": "NotOwner",
      "type": "error"
    },
    {
      "inputs": [
        {
          "internalType": "address",
          "name": "owner",
          "type": "address"
        }
      ],
      "name": "OwnableInvalidOwner",
      "type": "error"
    },
    {
      "inputs": [
        {
          "internalType": "address",
          "name": "account",
          "type": "address"
        }
      ],
      "name": "OwnableUnauthorizedAccount",
      "type": "error"
    },
    {
      "inputs": [],
      "name": "ReentrancyGuardReentrantCall",
      "type": "error"
    },
    {
      "inputs": [],
      "name": "TooManyLoans",
      "type": "error"
    },
    {
      "inputs": [],
      "name": "TransferFailed",
      "type": "error"
    },
    {
      "inputs": [],
      "name": "UnauthorizedBorrower",
      "type": "error"
    },
    {
      "inputs": [],
      "name": "UnauthorizedTransfer",
      "type": "error"
    },
    {
      "anonymous": false,
      "inputs": [
        {
          "indexed": true,
          "internalType": "address",
          "name": "borrower",
          "type": "address"
        },
        {
          "indexed": true,
          "internalType": "uint256",
          "name": "loanId",
          "type": "uint256"
        },
        {
          "indexed": false,
          "internalType": "uint256",
          "name": "nftId",
          "type": "uint256"
        },
        {
          "indexed": false,
          "internalType": "uint256",
          "name": "loanAmount",
          "type": "uint256"
        }
      ],
      "name": "LoanCreated",
      "type": "event"
    },
    {
      "anonymous": false,
      "inputs": [
        {
          "indexed": true,
          "internalType": "address",
          "name": "borrower",
          "type": "address"
        },
        {
          "indexed": true,
          "internalType": "uint256",
          "name": "loanId",
          "type": "uint256"
        },
        {
          "indexed": false,
          "internalType": "uint256",
          "name": "nftId",
          "type": "uint256"
        }
      ],
      "name": "LoanRepaid",
      "type": "event"
    },
    {
      "anonymous": false,
      "inputs": [
        {
          "indexed": true,
          "internalType": "address",
          "name": "owner",
          "type": "address"
        },
        {
          "indexed": true,
          "internalType": "uint256",
          "name": "loanId",
          "type": "uint256"
        },
        {
          "indexed": false,
          "internalType": "uint256",
          "name": "nftId",
          "type": "uint256"
        }
      ],
      "name": "NFTClaimed",
      "type": "event"
    },
    {
      "anonymous": false,
      "inputs": [
        {
          "indexed": true,
          "internalType": "address",
          "name": "previousOwner",
          "type": "address"
        },
        {
          "indexed": true,
          "internalType": "address",
          "name": "newOwner",
          "type": "address"
        }
      ],
      "name": "OwnershipTransferred",
      "type": "event"
    },
    {
      "anonymous": false,
      "inputs": [
        {
          "indexed": false,
          "internalType": "address",
          "name": "account",
          "type": "address"
        }
      ],
      "name": "Paused",
      "type": "event"
    },
    {
      "anonymous": false,
      "inputs": [
        {
          "indexed": false,
          "internalType": "address",
          "name": "account",
          "type": "address"
        }
      ],
      "name": "Unpaused",
      "type": "event"
    },
    {
      "inputs": [
        {
          "internalType": "uint256",
          "name": "_loanAmount",
          "type": "uint256"
        }
      ],
      "name": "calculateRepaymentAmount",
      "outputs": [
        {
          "internalType": "uint256",
          "name": "",
          "type": "uint256"
        }
      ],
      "stateMutability": "view",
      "type": "function"
    },
    {
      "inputs": [
        {
          "internalType": "uint256",
          "name": "_loanId",
          "type": "uint256"
        }
      ],
      "name": "claimNFT",
      "outputs": [],
      "stateMutability": "nonpayable",
      "type": "function"
    },
    {
      "inputs": [
        {
          "internalType": "uint256",
          "name": "",
          "type": "uint256"
        }
      ],
      "name": "collateralizedNFTs",
      "outputs": [
        {
          "internalType": "bool",
          "name": "",
          "type": "bool"
        }
      ],
      "stateMutability": "view",
      "type": "function"
    },
    {
      "inputs": [
        {
          "internalType": "address",
          "name": "_nftAddress",
          "type": "address"
        },
        {
          "internalType": "uint256",
          "name": "_nftId",
          "type": "uint256"
        },
        {
          "internalType": "uint256",
          "name": "_loanAmount",
          "type": "uint256"
        }
      ],
      "name": "createLoan",
      "outputs": [],
      "stateMutability": "nonpayable",
      "type": "function"
    },
    {
      "inputs": [],
      "name": "depositFunds",
      "outputs": [],
      "stateMutability": "payable",
      "type": "function"
    },
    {
      "inputs": [],
      "name": "getNFTPrice",
      "outputs": [
        {
          "internalType": "uint256",
          "name": "",
          "type": "uint256"
        }
      ],
      "stateMutability": "pure",
      "type": "function"
    },
    {
      "inputs": [],
      "name": "interestRate",
      "outputs": [
        {
          "internalType": "uint256",
          "name": "",
          "type": "uint256"
        }
      ],
      "stateMutability": "view",
      "type": "function"
    },
    {
      "inputs": [],
      "name": "loanDuration",
      "outputs": [
        {
          "internalType": "uint256",
          "name": "",
          "type": "uint256"
        }
      ],
      "stateMutability": "view",
      "type": "function"
    },
    {
      "inputs": [
        {
          "internalType": "uint256",
          "name": "",
          "type": "uint256"
        }
      ],
      "name": "loans",
      "outputs": [
        {
          "internalType": "address",
          "name": "borrower",
          "type": "address"
        },
        {
          "internalType": "address",
          "name": "nftAddress",
          "type": "address"
        },
        {
          "internalType": "uint256",
          "name": "nftId",
          "type": "uint256"
        },
        {
          "internalType": "uint256",
          "name": "loanAmount",
          "type": "uint256"
        },
        {
          "internalType": "uint256",
          "name": "loanStart",
          "type": "uint256"
        },
        {
          "internalType": "bool",
          "name": "isActive",
          "type": "bool"
        }
      ],
      "stateMutability": "view",
      "type": "function"
    },
    {
      "inputs": [],
      "name": "maxNumberOfLendingsPerWallet",
      "outputs": [
        {
          "internalType": "uint256",
          "name": "",
          "type": "uint256"
        }
      ],
      "stateMutability": "view",
      "type": "function"
    },
    {
      "inputs": [],
      "name": "maxPercentageForLoans",
      "outputs": [
        {
          "internalType": "uint256",
          "name": "",
          "type": "uint256"
        }
      ],
      "stateMutability": "view",
      "type": "function"
    },
    {
      "inputs": [],
      "name": "owner",
      "outputs": [
        {
          "internalType": "address",
          "name": "",
          "type": "address"
        }
      ],
      "stateMutability": "view",
      "type": "function"
    },
    {
      "inputs": [
        {
          "internalType": "bool",
          "name": "value",
          "type": "bool"
        }
      ],
      "name": "pause",
      "outputs": [],
      "stateMutability": "nonpayable",
      "type": "function"
    },
    {
      "inputs": [],
      "name": "paused",
      "outputs": [
        {
          "internalType": "bool",
          "name": "",
          "type": "bool"
        }
      ],
      "stateMutability": "view",
      "type": "function"
    },
    {
      "inputs": [],
      "name": "renounceOwnership",
      "outputs": [],
      "stateMutability": "nonpayable",
      "type": "function"
    },
    {
      "inputs": [
        {
          "internalType": "uint256",
          "name": "_loanId",
          "type": "uint256"
        }
      ],
      "name": "repayLoan",
      "outputs": [],
      "stateMutability": "payable",
      "type": "function"
    },
    {
      "inputs": [],
      "name": "totalLoans",
      "outputs": [
        {
          "internalType": "uint256",
          "name": "",
          "type": "uint256"
        }
      ],
      "stateMutability": "view",
      "type": "function"
    },
    {
      "inputs": [
        {
          "internalType": "address",
          "name": "newOwner",
          "type": "address"
        }
      ],
      "name": "transferOwnership",
      "outputs": [],
      "stateMutability": "nonpayable",
      "type": "function"
    },
    {
      "inputs": [
        {
          "internalType": "uint256",
          "name": "_amount",
          "type": "uint256"
        }
      ],
      "name": "withdrawFunds",
      "outputs": [],
      "stateMutability": "nonpayable",
      "type": "function"
    },
    {
      "stateMutability": "payable",
      "type": "receive"
    }
  ],
  "bytecode": "0x6080604052611f40600355600260065534801561001b57600080fd5b5060405161102e38038061102e83398101604081905261003a916100e1565b60016000819055805460ff19169055338061006f57604051631e4fbdf760e01b81526000600482015260240160405180910390fd5b61007881610087565b50600291909155600455610105565b600180546001600160a01b03838116610100818102610100600160a81b031985161790945560405193909204169182907f8be0079c531659141344cd1fd0a4f28419497f9722a3daafe3b4186f6b6457e090600090a35050565b600080604083850312156100f457600080fd5b505080516020909101519092909150565b610f1a806101146000396000f3fe6080604052600436106101185760003560e01c8063ab7b1c89116100a0578063e2c41dbc11610064578063e2c41dbc1461035d578063f2fde38b14610365578063f5521bf114610385578063fb107a4f1461039b578063fe5c873a146103af57600080fd5b8063ab7b1c8914610264578063af310cc114610277578063b11972391461028d578063cc952b57146102ad578063e1ec3c68146102c357600080fd5b80635c975abb116100e75780635c975abb146101af5780636ef2dd35146101d3578063715018a6146102035780637c3a00fd146102185780638da5cb5b1461022e57600080fd5b806302329a2914610124578063155dd5ee146101465780632f7ab57214610166578063488dd3e61461018f57600080fd5b3661011f57005b600080fd5b34801561013057600080fd5b5061014461013f366004610d90565b6103cf565b005b34801561015257600080fd5b50610144610161366004610db9565b6103f0565b34801561017257600080fd5b5061017c60035481565b6040519081526020015b60405180910390f35b34801561019b57600080fd5b506101446101aa366004610de7565b610434565b3480156101bb57600080fd5b5060015460ff165b6040519015158152602001610186565b3480156101df57600080fd5b506101c36101ee366004610db9565b60086020526000908152604090205460ff1681565b34801561020f57600080fd5b506101446107c4565b34801561022457600080fd5b5061017c60025481565b34801561023a57600080fd5b5060015461010090046001600160a01b03166040516001600160a01b039091168152602001610186565b610144610272366004610db9565b6107d8565b34801561028357600080fd5b5061017c60065481565b34801561029957600080fd5b5061017c6102a8366004610db9565b610991565b3480156102b957600080fd5b5061017c60055481565b3480156102cf57600080fd5b506103236102de366004610db9565b6007602052600090815260409020805460018201546002830154600384015460048501546005909501546001600160a01b039485169593909416939192909160ff1686565b604080516001600160a01b0397881681529690951660208701529385019290925260608401526080830152151560a082015260c001610186565b6101446109be565b34801561037157600080fd5b50610144610380366004610e1c565b6109c6565b34801561039157600080fd5b5061017c60045481565b3480156103a757600080fd5b50606461017c565b3480156103bb57600080fd5b506101446103ca366004610db9565b610a06565b6103d7610b91565b80156103e8576103e5610bc4565b50565b6103e5610c18565b6103f8610b91565b478111156104195760405163786e0a9960e01b815260040160405180910390fd5b6001546103e59061010090046001600160a01b031682610c51565b61043c610cc5565b610444610cef565b6040516331a9108f60e11b81526004810183905233906001600160a01b03851690636352211e90602401602060405180830381865afa15801561048b573d6000803e3d6000fd5b505050506040513d601f19601f820116820180604052508101906104af9190610e39565b6001600160a01b0316146104d6576040516330cd747160e01b815260040160405180910390fd5b804710156104f75760405163786e0a9960e01b815260040160405180910390fd5b60405163020604bf60e21b81526004810183905230906001600160a01b0385169063081812fc90602401602060405180830381865afa15801561053e573d6000803e3d6000fd5b505050506040513d601f19601f820116820180604052508101906105629190610e39565b6001600160a01b031614610589576040516325cdf54f60e21b815260040160405180910390fd5b60065433600090815260096020526040902054106105ba576040516379f076cb60e01b815260040160405180910390fd5b6127106003546105c8606490565b6105d29190610e6c565b6105dc9190610e83565b8111156105fc57604051635bf1f5fd60e01b815260040160405180910390fd5b6040805160c081018252338082526001600160a01b03861660208084019190915282840186905260608301859052426080840152600160a08401526000918252600990529182208054919261065083610ea5565b90915550506040516323b872dd60e01b8152336004820152306024820152604481018490526001600160a01b038516906323b872dd90606401600060405180830381600087803b1580156106a357600080fd5b505af11580156106b7573d6000803e3d6000fd5b5050600580546000908152600760209081526040808320875181546001600160a01b039182166001600160a01b0319918216178355848a015160018085018054929094169190921617909155828901516002830155606089015160038301556080890151600483015560a0890151918601805492151560ff199384161790558a85526008909352908320805490911690911790558154935090915061075b83610ea5565b919050555061076a3383610c51565b60016005546107799190610ebe565b604080518581526020810185905233917f1804eb76dc9809be7ef188388aa1aeb765881fd848377be891234e5c584345fe910160405180910390a3506107bf6001600055565b505050565b6107cc610b91565b6107d66000610d13565b565b6107e0610cc5565b6107e8610cef565b6000818152600760205260409020600581015460ff1661081b5760405163049cd05960e21b815260040160405180910390fd5b80546001600160a01b031633146108455760405163014776c360e71b815260040160405180910390fd5b60045481600401546108579190610ed1565b42111561087757604051632ee48ce560e11b815260040160405180910390fd5b60006108868260030154610991565b9050803410156108a957604051632ca2f52b60e11b815260040160405180910390fd5b600182015460028301546040516323b872dd60e01b815230600482015233602482015260448101919091526001600160a01b03909116906323b872dd90606401600060405180830381600087803b15801561090357600080fd5b505af1158015610917573d6000803e3d6000fd5b50505060058301805460ff1990811690915560028401805460009081526008602052604090819020805490931690925554905185925033917fc7ce0a35f17b490de2a317e7fecb2cae86b1abffb03800b2f4928235213826989161097d91815260200190565b60405180910390a350506103e56001600055565b6000612710600254836109a49190610e6c565b6109ae9190610e83565b6109b89083610ed1565b92915050565b6107d6610b91565b6109ce610b91565b6001600160a01b0381166109fd57604051631e4fbdf760e01b8152600060048201526024015b60405180910390fd5b6103e581610d13565b610a0e610b91565b6000818152600760205260409020600581015460ff16610a415760405163049cd05960e21b815260040160405180910390fd5b6004548160040154610a539190610ed1565b421015610a735760405163261094a960e21b815260040160405180910390fd5b60018101546001600160a01b03166342842e0e30610a9f6001546001600160a01b036101009091041690565b60028501546040516001600160e01b031960e086901b1681526001600160a01b0393841660048201529290911660248301526044820152606401600060405180830381600087803b158015610af357600080fd5b505af1158015610b07573d6000803e3d6000fd5b5050505060058101805460ff199081169091556002820154600090815260086020526040902080549091169055600154829061010090046001600160a01b03166001600160a01b03167fd93bbb9e10b7af5aa4b410ac845ae87a717d305e8a4777959ad1dd06e6a1ac988360020154604051610b8591815260200190565b60405180910390a35050565b6001546001600160a01b036101009091041633146107d65760405163118cdaa760e01b81523360048201526024016109f4565b610bcc610cef565b6001805460ff1916811790557f62e78cea01bee320cd4e420270b5ea74000d11b0c9f74754ebdbfc544b05a258335b6040516001600160a01b03909116815260200160405180910390a1565b610c20610d6d565b6001805460ff191690557f5db9ee0a495bf2e6ff9c91a7834c1ba4fdd244a5e8aa4e537bd38aeae4b073aa33610bfb565b6000826001600160a01b03168260405160006040518083038185875af1925050503d8060008114610c9e576040519150601f19603f3d011682016040523d82523d6000602084013e610ca3565b606091505b50509050806107bf576040516312171d8360e31b815260040160405180910390fd5b600260005403610ce857604051633ee5aeb560e01b815260040160405180910390fd5b6002600055565b60015460ff16156107d65760405163d93c066560e01b815260040160405180910390fd5b600180546001600160a01b03838116610100818102610100600160a81b031985161790945560405193909204169182907f8be0079c531659141344cd1fd0a4f28419497f9722a3daafe3b4186f6b6457e090600090a35050565b60015460ff166107d657604051638dfc202b60e01b815260040160405180910390fd5b600060208284031215610da257600080fd5b81358015158114610db257600080fd5b9392505050565b600060208284031215610dcb57600080fd5b5035919050565b6001600160a01b03811681146103e557600080fd5b600080600060608486031215610dfc57600080fd5b8335610e0781610dd2565b95602085013595506040909401359392505050565b600060208284031215610e2e57600080fd5b8135610db281610dd2565b600060208284031215610e4b57600080fd5b8151610db281610dd2565b634e487b7160e01b600052601160045260246000fd5b80820281158282048414176109b8576109b8610e56565b600082610ea057634e487b7160e01b600052601260045260246000fd5b500490565b600060018201610eb757610eb7610e56565b5060010190565b818103818111156109b8576109b8610e56565b808201808211156109b8576109b8610e5656fea26469706673582212205ed1e116c4243391e579a2882f34d72863617177b191d711deaf11d6646bd7be64736f6c63430008180033",
  "linkReferences": {},
  "deployedLinkReferences": {}
}